:100000008AEF0CF0F76A140FF66E000EF722090063
:10001000F5501200000000000000005F0000000327
:10002000000300143E143E14242A7F2A124333088E
:10003000666136495522500005030000001C22412C
:10004000000041221C0014083E081408083E08085D
:100050000050300000080808080800606000002018
:10006000100804023E5149453E0004027F004261EF
:1000700051494622414949361814127F10274545F7
:1000800045393E4949493201017109073649494913
:1000900036264949493E00363600000056360000F3
:1000A00008142241001414141414004122140802EC
:1000B000015109063E4159555E7E0909097E7F4975
:1000C0004949363E414141227F4141413E7F4949B4
:1000D00049417F090909013E4141493A7F08080821
:1000E0007F00417F4100304040403F7F0814224163
:1000F0007F404040407F020C027F7F0204087F3E29
:100100004141413E7F090909061E2121215E7F09E7
:1001100009097600F76A240FF66E010EF72209002E
:10012000F5501200264949493201017F01013F4043
:1001300040403F1F2040201F7F2010207F41221C75
:10014000224107087008076151494543007F41007B
:100150000002040810200000417F00040201020494
:100160004040404040000102040020545454787F35
:10017000444444383844444444384444447F385424
:1001800054541804047E0505085454543C7F080454
:10019000047800447D40002040443D007F10284406
:1001A0000000417F40007C047804787C08040478D7
:1001B00038444444387C14141408081414147C0083
:1001C0007C080404485454542004043F44443C40F4
:1001D00040207C1C2040201C3C4030403C442810E7
:1001E00028440C5050503C4464544C440008364160
:1001F0004100007F00004141360800020102040274
:10020000F76A100FF66E020EF7220900F550120081
:100210003738394134353642313233432A3023447A
:100220002E0FF66E020EF7220900F55012005765E8
:100230006C436F6D650000000000000000000000CE
:1002400000000000000000000000000000000000AE
:10025000000000000000000000000000000000009E
:100260000000000000000000000050726573732061
:10027000456E74657220746F20537461727400004F
:10028000000000000000000000000000000000006E
:10029000000000000000000000000000000000005E
:1002A000000000000000596F750000000000000011
:1002B000000000000000000000000000000000003E
:1002C000000000000000000000000000000000002E
:1002D000000000000000000000000000000000001E
:1002E00000002A574F4E2A000000000000000000C6
:1002F00000000000000000000000000000000000FE
:1003000000000000000000000000000000000000ED
:10031000000000000000000000000000000050721B
:100320006573730000000000000000000000000082
:1003300000000000000000000000000000000000BD
:1003400000000000000000000000000000000000AD
:1003500000000000000000000000456E746572009F
:10036000000000000000000000000000000000008D
:10037000000000000000000000000000000000007D
:10038000000000000000000000000000000000006D
:10039000000000000000746F00000000000000007A
:1003A000000000000000000000000000000000004D
:1003B000000000000000000000000000000000003D
:1003C000000000000000000000000000000000002D
:1003D000000052657365740000000000000000001A
:1003E000000000000000000000000000000000000D
:1003F00000000000000000000000000000000000FD
:1004000000000000000000000000000000000000EC
:1004100000000000000000000000000000000000DC
:10080000000000000000000000007E5303E093920F
:100810008A8202D093908A8093988A98956A7FC042
:100820008CFF0000939A8A8A00D000D00000939A2F
:100830008A9A93908A9093928A9212005D6A5D5090
:10084000070834E393968A967E6B400E7F6FDDDF58
:10085000010E7E6F400E7F6FD8DF5D50B8095F6E6E
:100860007E6B7F6FD2DF5D50B8095F6E010E7E6FC9
:100870005FC07FF0CADF93968A865E6A5E503F084B
:1008800013E35C50FF0DF3CF5FF07E6B5FC07FF032
:10089000BCDF5C50FF0DF3CF5FF0010E7E6F5FC0D9
:1008A0007FF0B3DF5E2AEAD75D2AC9D794EF04F060
:1008B00093948A84939A8A9A93908A9093928A9234
:1008C00093968A967E6BC00E7F6F9FDF010E7E6FC0
:1008D000C00E7F6F9ADF7E6B400E7F6F96DF010E3A
:1008E0007E6F400E7F6F91DF7E6BB80E7F6F8DDF66
:1008F000010E7E6FB80E7F6F88DF5B2C0AD07E6B97
:100900003F0E7F6F82DF010E7E6F3F0E7F6F7DDFB8
:1009100009D07E6B3E0E7F6F78DF010E7E6F3E0E3C
:100920007F6F73DF5C6A8AD71200016603D00266AC
:1009300002D007D0022A00C0EEFF012EFCD7022E03
:10094000FAD7BBEF04F05F506103F3CF01F0F4CFAF
:1009500000F06203F350002660516103F350002061
:10096000026E12005C6AEA6A0A0EE96E006A026AA6
:100970003C0E016EDAD7606B5BC05FF0626B3C0EC1
:10098000616FE1DF02C05EF001C05DF05C500124E8
:10099000016E000E0220036E0150F2CF5DF0F29E58
:1009A00003C0F7FF3DDC5DBEF28E000A27E05C501D
:1009B0003B0824E3036A5C500A0FE96E000E032033
:1009C000EA6E606B5BC05FF0626B3C0E616FBBDF19
:1009D00002C060F001C05FF05C500124016E000EA7
:1009E0000220036E0150F2CF5FF0F29E03C0F7FFCA
:1009F00017DC5FBEF28EEF6E5C2ABDD7036A5C50D7
:100A00000A0F016E000E032203C0EAFF01C0E9FFD6
:100A1000EF6A1200FF0E956E93988A887D5303E06B
:100A200093928A8202D093908A800000939A8A8A55
:100A300000D000D0956883CF7EF0939A8A9A9390E5
:100A40008A9093928A927EC001F012007B91775136
:100A50003F0803E2400E775F7B8193968A96779FEB
:100A6000778D000E7BB1010E7C6F7E6F77C07FF0BB
:100A7000CCDE000E7BB1010E7C6F7831006E00324F
:100A800000321F0E00160050BF0BB8097D6F7CC0EE
:100A90007EF07F6FBADE93968A86000E7BB1010EE0
:100AA0007C6F7D6FB7DF000E7BB1010E7C6F7D6FB9
:100AB000B1DF01C07AF0792D0FD07851070B7C6F30
:100AC000010E006E7C51016E04E0D8900036012EBC
:100AD000FCD700507A130FD07851070B7C6F010EB2
:100AE000006E7C51016E04E0D8900036012EFCD7D8
:100AF0000050FF0A7A1793968A96000E7BB1010E7A
:100B00007C6F7E6F77C07FF080DE93968A86000EC2
:100B10007BB1010E7C6F7E6F7AC07FF076DE1200B3
:100B20005FC003F05EC0E9FF5FC0EAFFEF52D8B4D8
:100B3000C1D05FC003F05EC0E9FF5FC0EAFFEF50C5
:100B4000520824E35FC003F05EC0E9FF5FC0EAFF24
:100B5000200EEF5C050DF350036A6B6FEA6A660EB8
:100B6000E96E6F6B6BC06EF0F2CF6CF0F29E050E0B
:100B7000016EF76A6B5102EC00F00A000900F5CF34
:100B8000EEFF012EFBD76CBFF28E32D05FC003F0B8
:100B90005EC0E9FF5FC0EAFFEF507E0824E35FC05C
:100BA00003F05EC0E9FF5FC0EAFF530EEF5C050D86
:100BB000F350036A6B6FEA6A660EE96E6F6B6BC087
:100BC0006EF0F2CF6CF0F29E050E016EF76A6B517B
:100BD0008AEC00F00A000900F5CFEEFF012EFBD7EA
:100BE0006CBFF28E05D0666B676B686B696B6A6B66
:100BF0005FC003F05EC0E9FF5FC0EAFFEF500A0A82
:100C000003E0070A07E008D06051070DF350010F19
:100C10005D264BD05C6A49D06051050DF3505C24D1
:100C20007F0806E25C6A6051070DF350010F5D26F4
:100C3000626B6251040839E3636B6351060831E368
:100C4000036A6251660FE96E000E0320EA6EEFCF71
:100C50006BF06BC000F06351016E04E0D89000327D
:100C6000012EFCD700A01BD0646B6051645D17E2BD
:100C7000656B6051655D11E265515C246B6F63517A
:100C80006003F3505D2464256C6F6BC077F0786F60
:100C900061C079F0DBDE652BECD7642BE6D7632BE4
:100CA000CCD7622B60515C26C4D75E2AD8B45F2AA9
:100CB0005C2A36D712009280000E80B0010E5D6E65
:100CC0009282000E80B2010E5D169284000E80B4F6
:100CD000010E5D169286000E80B6010E5D1404E0D2
:100CE000000E016E03D002D0010E016E12005B6A8D
:100CF000062A06502108D8B068D00950FC0F26E219
:100D0000040FE8EF06F092988998929A898A969053
:100D10008D8096928D821AD092988988929A899A1B
:100D200096908D8096928D8211D092988988929A11
:100D3000898A96908D9096928D8208D09298898813
:100D4000929A898A96908D8096928D9207A008D06B
:100D5000B2DF015204E1079008C05BF0086A34D0AA
:100D6000AADF01522CE0928080B002D05C6A11D0E0
:100D7000928280B203D0010E5C6E0BD0928480B45C
:100D800003D0020E5C6E05D0928680B602D0030EB0
:100D90005C6E5C50040DF3505E6A5D6E036A095030
:100DA0005D24016E5E5003220150F2CF5DF0F29E91
:100DB00000EC01F05DBEF28E086E078005D0092AB6
:100DC0000950040801E1096A066A5BC001F01200DB
:100DD000E824F76AF736EB0FF66E0D0EF7220A00DD
:100DE000F550FA6E0800F550F96E060D180D2A0D33
:100DF0003C0D466A465204E17ADF01C046F0FAD75C
:100E00001200010E706F716F766B6751695D776FBD
:100E1000775177AF03D0000ED8807755036A6E6F95
:100E200003C06FF068516A5D776F775177AF03D079
:100E3000000ED8807755036A6C6F03C06DF0675160
:100E4000695D01E2706968516A5D01E271696D5125
:100E50006F5D38E303E16C516E5D34E3D8906C371D
:100E60006D376E516C5D006E6F516D5900C072F040
:100E7000736F6E51725D746F6F517359756F6F53ED
:100E800003E176516E5D1DE367C077F068C078F0CE
:100E90006BC079F0DBDD73AF08D06C5172276D51F8
:100EA000732370516725676F0AD07451722775518B
:100EB000732370516725676F71516825686F762BB2
:100EC000DED733D0D8906E376F376C516E5D006EC1
:100ED0006D516F5900C072F0736F6C51725D746F19
:100EE0006D517359756F6D5303E176516C5D1DE360
:100EF00067C077F068C078F06BC079F0A7DD73AF9A
:100F000008D06E5172276F51732371516825686F35
:100F10000AD0745172277551732370516725676F1A
:100F200071516825686F762BDED7120060532CE074
:100F30005E505C5C05E25CC063F05EC064F004D0AF
:100F40005EC063F05CC064F05F505D5C05E25DC054
:100F500065F05FC066F004D05FC065F05DC066F00C
:100F60006351645D10E365C062F06251665D09E340
:100F700063C077F062C078F061C079F067DD622B02
:100F8000F4D7632BEDD72CD05CC067F05DC068F060
:100F90005EC069F05DC06AF061C06BF032DF5CC0BA
:100FA00067F05FC068F05EC069F05FC06AF061C062
:100FB0006BF027DF5CC067F05DC068F05CC069F073
:100FC0005FC06AF061C06BF01CDF5EC067F05DC09F
:100FD00068F05EC069F05FC06AF061C06BF011DF5D
:100FE0001200536A485203E1200E526E02D048C0EC
:100FF00052F01E0E5C6E5D6A320E5E6E140E5F6EF7
:10100000606B010E616F92DF1F0E5C6E010E5D6EF4
:10101000310E5E6E130E5F6E010E606F616B86DFC8
:10102000230E5C6E040E5D6E5F6A520E5E6E020EE3
:10103000606F010E616F74DD495203E1200E526E44
:1010400002D049C052F0320E5C6E5D6A460E5E6E92
:10105000140E5F6E606B010E616F68DF330E5C6EA5
:10106000010E5D6E450E5E6E130E5F6E010E606FBB
:10107000616B5CDF370E5C6E040E5D6E5F6A520E54
:101080005E6E020E606F010E616F4ADD4A5203E12F
:10109000200E526E02D04AC052F0460E5C6E5D6A5F
:1010A0005A0E5E6E140E5F6E606B010E616F3EDF56
:1010B000470E5C6E010E5D6E590E5E6E130E5F6E16
:1010C000010E606F616B32DF4B0E5C6E040E5D6E65
:1010D0005F6A520E5E6E020E606F010E616F20DD60
:1010E0004B5203E1200E526E02D04BC052F01E0E46
:1010F0005C6E140E5D6E320E5E6E280E5F6E606B5F
:10110000010E616F13DF1F0E5C6E150E5D6E310EEA
:101110005E6E270E5F6E010E606F616B07DF230E40
:101120005C6E180E5D6E5F6A520E5E6E020E606F30
:10113000010E616FF5DC4C5203E1200E526E02D0BD
:101140004CC052F0320E5C6E140E5D6E460E5E6E3A
:10115000280E5F6E606B010E616FE8DE330E5C6E11
:10116000150E5D6E450E5E6E270E5F6E010E606F92
:10117000616BDCDE370E5C6E180E5D6E5F6A520EC0
:101180005E6E020E606F010E616FCADC4D5203E1AC
:10119000200E526E02D04DC052F0460E5C6E140E00
:1011A0005D6E5A0E5E6E280E5F6E606B010E616F93
:1011B000BDDE470E5C6E150E5D6E590E5E6E270E1F
:1011C0005F6E010E606F616BB1DE4B0E5C6E180ED0
:1011D0005D6E5F6A520E5E6E020E606F010E616F91
:1011E0009FDC4E5203E1200E526E02D04EC052F0F0
:1011F0001E0E5C6E280E5D6E320E5E6E3C0E5F6ED5
:10120000606B010E616F92DE1F0E5C6E290E5D6ECB
:10121000310E5E6E3B0E5F6E010E606F616B86DE9F
:10122000230E5C6E2C0E5D6E5F6A520E5E6E020EB9
:10123000606F010E616F74DC4F5203E1200E526E3D
:1012400002D04FC052F0320E5C6E280E5D6E460E1C
:101250005E6E3C0E5F6E606B010E616F67DE330E7B
:101260005C6E290E5D6E450E5E6E3B0E5F6E010E6E
:10127000606F616B5BDE370E5C6E2C0E5D6E5F6ABD
:10128000520E5E6E020E606F010E616F49DC5052AD
:1012900003E1200E526E02D050C052F0460E5C6E3A
:1012A000280E5D6E5A0E5E6E3C0E5F6E606B010E18
:1012B000616F3CDE470E5C6E290E5D6E590E5E6EF0
:1012C0003B0E5F6E010E606F616B30DE4B0E5C6E2D
:1012D0002C0E5D6E5F6A520E5E6E020E606F010E26
:1012E000616F1EDCE2EF0CF084DD4650300807E24F
:1012F0004650390804E3300E465C476E01D0476A19
:10130000E3EF0CF0536A5B2C20D0485203E1200E2F
:10131000526E02D048C052F01F0E5C6E010E5D6E20
:10132000310E5E6E130E5F6E010E606F616FFEDD3B
:10133000230E5C6E040E5D6E5F6A520E5E6E020ED0
:10134000606F616B90EC05F017D15B50020820E1F3
:10135000495203E1200E526E02D049C052F0330EC2
:101360005C6E010E5D6E450E5E6E130E5F6E010EBD
:10137000606F616FDBDD370E5C6E040E5D6E5F6A61
:10138000520E5E6E020E606F616B90EC05F0F4D051
:101390005B50030820E14A5203E1200E526E02D056
:1013A0004AC052F0470E5C6E010E5D6E590E5E6EC5
:1013B000130E5F6E010E606F616FB8DD4B0E5C6ED9
:1013C000040E5D6E5F6A520E5E6E020E606F616BA0
:1013D00090EC05F0D1D05B50040820E14B5203E1C2
:1013E000200E526E02D04BC052F01F0E5C6E150ED6
:1013F0005D6E310E5E6E270E5F6E010E606F616F67
:1014000095DD230E5C6E180E5D6E5F6A520E5E6E89
:10141000020E606F616B90EC05F0AED05B5005087A
:1014200020E14C5203E1200E526E02D04CC052F02B
:10143000330E5C6E150E5D6E450E5E6E270E5F6E92
:10144000010E606F616F72DD370E5C6E180E5D6E9F
:101450005F6A520E5E6E020E606F616B90EC05F07B
:101460008BD05B50060820E14D5203E1200E526EF6
:1014700002D04DC052F0470E5C6E150E5D6E590ED7
:101480005E6E270E5F6E010E606F616F4FDD4B0E5B
:101490005C6E180E5D6E5F6A520E5E6E020E606FBD
:1014A000616B90EC05F068D05B50070820E14E526C
:1014B00003E1200E526E02D04EC052F01F0E5C6E41
:1014C000290E5D6E310E5E6E3B0E5F6E010E606F1B
:1014D000616F2CDD230E5C6E2C0E5D6E5F6A520E0A
:1014E0005E6E020E606F616B90EC05F045D05B5054
:1014F000080820E14F5203E1200E526E02D04FC087
:1015000052F0330E5C6E290E5D6E450E5E6E3B0E24
:101510005F6E010E606F616F09DD370E5C6E2C0E21
:101520005D6E5F6A520E5E6E020E606F616B90ECD4
:1015300005F022D05B5009081FE1505203E1200E54
:10154000526E02D050C052F0470E5C6E290E5D6E96
:10155000590E5E6E3B0E5F6E010E606F616FE6DCD2
:101560004B0E5C6E2C0E5D6E5F6A520E5E6E020E4E
:10157000606F616B90EC05F0E6EF0CF00A0E466EC2
:10158000465205E077EC06F001C046F0F9D71200AC
:1015900030DC465030080DE2465039080AE3010EAF
:1015A000475C036A480FE96E000E0320EA6E46C0EE
:1015B000EFFFE8EF0CF0536A5B2C21D0485203E1B7
:1015C000200E526E02D048C052F01F0E5C6E010E0B
:1015D0005D6E310E5E6E130E5F6E010E606F616B9D
:1015E000A5DC230E5C6E040E5D6E5F6A520E5E6EAD
:1015F000020E606F010E616F90EC05F023D15B501D
:10160000020821E1495203E1200E526E02D049C086
:1016100052F0330E5C6E010E5D6E450E5E6E130E63
:101620005F6E010E606F616B81DC370E5C6E040EC5
:101630005D6E5F6A520E5E6E020E606F010E616F2C
:1016400090EC05F0FFD05B50030821E14A5203E122
:10165000200E526E02D04AC052F0470E5C6E010E50
:101660005D6E590E5E6E130E5F6E010E606F616BE4
:101670005DDC4B0E5C6E040E5D6E5F6A520E5E6E3C
:10168000020E606F010E616F90EC05F0DBD05B50D5
:10169000040821E14B5203E1200E526E02D04BC0F0
:1016A00052F01F0E5C6E150E5D6E310E5E6E270ED3
:1016B0005F6E010E606F616B39DC230E5C6E180E7D
:1016C0005D6E5F6A520E5E6E020E606F010E616F9C
:1016D00090EC05F0B7D05B50050821E14C5203E1D6
:1016E000200E526E02D04CC052F0330E5C6E150EBE
:1016F0005D6E450E5E6E270E5F6E010E606F616B54
:1017000015DC370E5C6E180E5D6E5F6A520E5E6EF3
:10171000020E606F010E616F90EC05F093D05B508C
:10172000060822E14D5203E1200E526E02D04DC058
:1017300052F0470E5C6E150E5D6E590E5E6E270EF2
:101740005F6E010E606F616B96EC07F04B0E5C6E86
:10175000180E5D6E5F6A520E5E6E020E606F010EB5
:10176000616F90EC05F06ED05B50070822E14E529D
:1017700003E1200E526E02D04EC052F01F0E5C6E7E
:10178000290E5D6E310E5E6E3B0E5F6E010E606F58
:10179000616B96EC07F0230E5C6E2C0E5D6E5F6A3B
:1017A000520E5E6E020E606F010E616F90EC05F0DE
:1017B00049D05B50080822E14F5203E1200E526EDF
:1017C00002D04FC052F0330E5C6E290E5D6E450E96
:1017D0005E6E3B0E5F6E010E606F616B96EC07F004
:1017E000370E5C6E2C0E5D6E5F6A520E5E6E020EE0
:1017F000606F010E616F90EC05F024D05B5009081A
:1018000021E1505203E1200E526E02D050C052F03E
:10181000470E5C6E290E5D6E590E5E6E3B0E5F6E5E
:10182000010E606F616B96EC07F04B0E5C6E2C0E38
:101830005D6E5F6A520E5E6E020E606F010E616F2A
:1018400090EC05F0EBEF0CF05B6A5B6A5B5008080C
:1018500010E3036A5B50480FE96E000E0320EA6E46
:10186000EF5203E1566A05D002D0010E566E5B2A94
:10187000EDD7565203E156C001F04AD049504824F2
:101880004A24700F0F0803E0000E016E41D04C5047
:101890004B244D24700F0F0803E0000E016E38D06A
:1018A0004F504E245024700F0F0803E0000E016EBD
:1018B0002FD04B5048244E24700F0F0803E0000E29
:1018C000016E26D04C5049244F24700F0F0803E0BE
:1018D000000E016E1DD04D504A245024700F0F0889
:1018E00003E0000E016E14D04C5048245024700FB9
:1018F0000F0803E0000E016E0BD04C504A244E241A
:10190000700F0F0803E0000E016E02D0010E016E91
:10191000EDEF0CF0F86AD09E700ED36ED350466A8D
:10192000310E476E516A566AC150C00B0F09C16E25
:10193000070EB46E0790046A056A066A0790086A83
:10194000096A720ED36ED350010E5B6E58EC04F030
:101950005B6AB2EC04F02D0E5C6E080E5D6E5F6A81
:101960000A0E5E6E010E606F616F90EC05F0010E65
:101970005B6EB2EC04F05C6A300E5D6E5F6A0A0E5C
:101980005E6E010E606F616F90EC05F0F9EC06F091
:1019900046502A0801E0FAD7010E5B6E58EC04F0BD
:1019A000010E476E516A515008080AE3036A51500C
:1019B000480FE96E000E0320EA6EEF6A512AF3D752
:1019C000F1EF07F091D447C05BF09CD4D7DDE0D5B0
:1019D00047C05BF0F0D5D2DD37D7015262E0020E8E
:1019E0005B6EB2EC04F05C6A5D6A5F6A0A0E5E6E62
:1019F000010E606F616F90EC05F0030E5B6EB2EC50
:101A000004F05C6A140E5D6E5F6A0A0E5E6E010E73
:101A1000606F616F90EC05F0040E5B6EB2EC04F049
:101A20005C0E5C6E5D6A5F6A0A0E5E6E010E606F30
:101A3000616F90EC05F0050E5B6EB2EC04F05C0E8D
:101A40005C6E0A0E5D6E5F6A5E6E010E606F616FA6
:101A500090EC05F0060E5B6EB2EC04F05C0E5C6E72
:101A6000140E5D6E5F6A0A0E5E6E010E606F616F2E
:101A700090EC05F0070E5B6EB2EC04F05C0E5C6E51
:101A80001E0E5D6E5F6A0A0E5E6E010E606F616F04
:101A900090EC05F0F9EC06F046502A0801E0FAD780
:061AA00053D790D7FFD7D9
:020000040030CA
:0E0000003FC9391E008700000FC00FE00F40FF
:00000001FF
